{
  "contractName": "EtherWallet",
  "abi": [
    {
      "inputs": [
        {
          "internalType": "address payable",
          "name": "_owner",
          "type": "address"
        }
      ],
      "stateMutability": "nonpayable",
      "type": "constructor"
    },
    {
      "inputs": [],
      "name": "owner",
      "outputs": [
        {
          "internalType": "address payable",
          "name": "",
          "type": "address"
        }
      ],
      "stateMutability": "view",
      "type": "function",
      "constant": true
    },
    {
      "inputs": [],
      "name": "deposit",
      "outputs": [],
      "stateMutability": "payable",
      "type": "function",
      "payable": true
    },
    {
      "inputs": [
        {
          "internalType": "address payable",
          "name": "to",
          "type": "address"
        },
        {
          "internalType": "uint256",
          "name": "amount",
          "type": "uint256"
        }
      ],
      "name": "send",
      "outputs": [],
      "stateMutability": "nonpayable",
      "type": "function"
    },
    {
      "inputs": [],
      "name": "balanceOf",
      "outputs": [
        {
          "internalType": "uint256",
          "name": "",
          "type": "uint256"
        }
      ],
      "stateMutability": "view",
      "type": "function",
      "constant": true
    }
  ],
  "bytecode": "0x608060405234801561001057600080fd5b506040516105553803806105558339818101604052810190610032919061008d565b806000806101000a81548173ffffffffffffffffffffffffffffffffffffffff021916908373ffffffffffffffffffffffffffffffffffffffff160217905550506100ff565b600081519050610087816100e8565b92915050565b60006020828403121561009f57600080fd5b60006100ad84828501610078565b91505092915050565b60006100c1826100c8565b9050919050565b600073ffffffffffffffffffffffffffffffffffffffff82169050919050565b6100f1816100b6565b81146100fc57600080fd5b50565b6104478061010e6000396000f3fe60806040526004361061003f5760003560e01c8063722713f7146100445780638da5cb5b1461006f578063d0679d341461009a578063d0e30db0146100c3575b600080fd5b34801561005057600080fd5b506100596100cd565b604051610066919061037b565b60405180910390f35b34801561007b57600080fd5b506100846100d5565b6040516100919190610320565b60405180910390f35b3480156100a657600080fd5b506100c160048036038101906100bc9190610246565b6100f9565b005b6100cb61021a565b005b600047905090565b60008054906101000a900473ffffffffffffffffffffffffffffffffffffffff1681565b60008054906101000a900473ffffffffffffffffffffffffffffffffffffffff1673ffffffffffffffffffffffffffffffffffffffff163373ffffffffffffffffffffffffffffffffffffffff1614156101db5780471161018f576040517f08c379a00000000000000000000000000000000000000000000000000000000081526004016101869061035b565b60405180910390fd5b8173ffffffffffffffffffffffffffffffffffffffff166108fc829081150290604051600060405180830381858888f193505050501580156101d5573d6000803e3d6000fd5b50610216565b6040517f08c379a000000000000000000000000000000000000000000000000000000000815260040161020d9061033b565b60405180910390fd5b5050565b565b60008135905061022b816103e3565b92915050565b600081359050610240816103fa565b92915050565b6000806040838503121561025957600080fd5b60006102678582860161021c565b925050602061027885828601610231565b9150509250929050565b61028b816103a7565b82525050565b600061029e601583610396565b91507f73656e646572206973206e6f7420616c6c6f77656400000000000000000000006000830152602082019050919050565b60006102de601183610396565b91507f4e6f7420656e6f75676820666f756e64730000000000000000000000000000006000830152602082019050919050565b61031a816103d9565b82525050565b60006020820190506103356000830184610282565b92915050565b6000602082019050818103600083015261035481610291565b9050919050565b60006020820190508181036000830152610374816102d1565b9050919050565b60006020820190506103906000830184610311565b92915050565b600082825260208201905092915050565b60006103b2826103b9565b9050919050565b600073ffffffffffffffffffffffffffffffffffffffff82169050919050565b6000819050919050565b6103ec816103a7565b81146103f757600080fd5b50565b610403816103d9565b811461040e57600080fd5b5056fea264697066735822122047f0d3d7762ef06a927c64e234cbc412233d9260c852fc8aeb8bf88d7377897964736f6c63430008000033",
  "immutableReferences": {},
  "source": "pragma solidity ^0.8.0;\r\n\r\ncontract EtherWallet {\r\n  address payable public owner;\r\n\r\n  constructor(address payable _owner) {\r\n    owner = _owner;\r\n  }\r\n\r\n  function deposit() payable public {\r\n  }\r\n\r\n  function send(address payable to, uint amount) public {\r\n    if(msg.sender == owner) {\r\n      require( (address(this).balance > amount),'Not enough founds');\r\n      to.transfer(amount);\r\n      return;\r\n    } \r\n    revert('sender is not allowed');\r\n  }\r\n\r\n  function balanceOf() view public returns(uint) {\r\n    return address(this).balance;\r\n  }\r\n}\r\n",
  "sourcePath": "C:/Users/Usuario/Desktop/Proyectos/simple-etherwallet/contracts/EtherWallet.sol",
  "compiler": {
    "name": "solc",
    "version": "0.8.0+commit.c7dfd78e.Emscripten.clang"
  },
  "schemaVersion": "3.4.1",
  "updatedAt": "2021-07-17T08:40:41.919Z",
  "networkType": "ethereum",
  "devdoc": {
    "kind": "dev",
    "methods": {},
    "version": 1
  },
  "userdoc": {
    "kind": "user",
    "methods": {},
    "version": 1
  }
}